S00F0000447269766572732E7372656336
S11300000C942A000C9434000C9434000C943400A6
S11300100C9434000C9434000C9434000C9434008C
S11300200C9434000C9434000C9434000C9434007C
S11300300C9434000C9434000C9434000C9434006C
S11300400C9434000C9434000C9434000C9434005C
S11300500C94340011241FBECFE5D8E0DEBFCDBF21
S11300600E9450000C94A4010C94000042E061E052
S113007080E00E945F00089561E080E00E94380102
S113008091E0811190E0892F089541E060E080E0E3
S11300900E945F00089560E080E00E946E01089570
S11300A00E9436000E9445000E943C008823E1F330
S11300B00E944B000E943C008111FCCFF5CF6130BF
S11300C0E1F138F0623009F46CC0633009F49DC08A
S11300D00895413069F44AB321E030E0B90102C027
S11300E0660F771F8A95E2F7CB01842B8ABB0895AC
S11300F041110EC04AB321E030E0B90102C0660FDD
S1130100771F8A95E2F7CB01809584238ABB0895F3
S1130110423009F0ACC04BB321E030E0B90102C079
S1130120660F771F8A95E2F7CB01942F982B9BBB20
S11301309AB3809589238ABB0895413069F447B303
S113014021E030E0B90102C0660F771F8A95E2F71B
S1130150CB01842B87BB089541110EC047B321E026
S113016030E0B90102C0660F771F8A95E2F7CB0130
S11301708095842387BB0895423009F078C048B342
S113018021E030E0B90102C0660F771F8A95E2F7DB
S1130190CB01942F982B98BB97B38095892387BB69
S11301A00895413069F444B321E030E0B90102C05C
S11301B0660F771F8A95E2F7CB01842B84BB0895E1
S11301C041110EC044B321E030E0B90102C0660F12
S11301D0771F8A95E2F7CB018095842384BB089529
S11301E0423009F044C045B321E030E0B90102C017
S11301F0660F771F8A95E2F7CB01942F982B95BB56
S113020094B38095892384BB0895413069F441B344
S113021021E030E0B90102C0660F771F8A95E2F74A
S1130220CB01842B81BB089541110EC041B321E061
S113023030E0B90102C0660F771F8A95E2F7CB015F
S11302408095842381BB0895423089F442B321E030
S113025030E0B90102C0660F771F8A95E2F7CB013F
S1130260942F982B92BB91B38095892381BB0895D9
S1130270613089F028F06230C9F0633011F12CC08C
S113028029B330E0A90102C0559547958A95E2F754
S1130290CA018170089526B330E0A90102C05595C2
S11302A047958A95E2F7CA018170089523B330E037
S11302B0A90102C0559547958A95E2F7CA01817054
S11302C0089520B330E0A90102C0559547958A9559
S11302D0E2F7CA018170089580E00895613089F0E1
S11302E028F06230C9F0633011F108959BB321E026
S11302F030E0082E02C0220F331F0A94E2F72927A8
S11303002BBB98B321E030E0082E02C0220F331F2C
S11303100A94E2F7292728BB95B321E030E0082EA0
S113032002C0220F331F0A94E2F7292725BB42B3E8
S113033021E030E0B90102C0660F771F8A95E2F729
S10F0340CB01842782BB0895F894FFCF02
S9030000FC
